{
  "address": "0x04D363423D96eae45A22Fc15f141bC8CEb88EF9A",
  "abi": [
    {
      "inputs": [
        {
          "internalType": "address payable",
          "name": "diceGameAddress",
          "type": "address"
        }
      ],
      "stateMutability": "nonpayable",
      "type": "constructor"
    },
    {
      "inputs": [
        {
          "internalType": "address",
          "name": "owner",
          "type": "address"
        }
      ],
      "name": "OwnableInvalidOwner",
      "type": "error"
    },
    {
      "inputs": [
        {
          "internalType": "address",
          "name": "account",
          "type": "address"
        }
      ],
      "name": "OwnableUnauthorizedAccount",
      "type": "error"
    },
    {
      "anonymous": false,
      "inputs": [
        {
          "indexed": true,
          "internalType": "address",
          "name": "previousOwner",
          "type": "address"
        },
        {
          "indexed": true,
          "internalType": "address",
          "name": "newOwner",
          "type": "address"
        }
      ],
      "name": "OwnershipTransferred",
      "type": "event"
    },
    {
      "inputs": [],
      "name": "diceGame",
      "outputs": [
        {
          "internalType": "contract DiceGame",
          "name": "",
          "type": "address"
        }
      ],
      "stateMutability": "view",
      "type": "function"
    },
    {
      "inputs": [],
      "name": "owner",
      "outputs": [
        {
          "internalType": "address",
          "name": "",
          "type": "address"
        }
      ],
      "stateMutability": "view",
      "type": "function"
    },
    {
      "inputs": [],
      "name": "renounceOwnership",
      "outputs": [],
      "stateMutability": "nonpayable",
      "type": "function"
    },
    {
      "inputs": [],
      "name": "riggedRoll",
      "outputs": [],
      "stateMutability": "nonpayable",
      "type": "function"
    },
    {
      "inputs": [
        {
          "internalType": "address",
          "name": "newOwner",
          "type": "address"
        }
      ],
      "name": "transferOwnership",
      "outputs": [],
      "stateMutability": "nonpayable",
      "type": "function"
    },
    {
      "inputs": [
        {
          "internalType": "address payable",
          "name": "_to",
          "type": "address"
        },
        {
          "internalType": "uint256",
          "name": "amount",
          "type": "uint256"
        }
      ],
      "name": "withdraw",
      "outputs": [],
      "stateMutability": "nonpayable",
      "type": "function"
    },
    {
      "stateMutability": "payable",
      "type": "receive"
    }
  ],
  "transactionHash": "0xb5dca320fba770c5793c4ab24409670cc7cc3b46be9268af93bb7c7e51d8db82",
  "args": [
    "0xdAdB53BACd1ec96c049275BdD2BD60EBF4EB05B3"
  ],
  "numDeployments": 1,
  "solcInputHash": "6f9ee2fc7987fea338e730bf12632e76",
  "bytecode": "0x608060405234801561001057600080fd5b506040516107d23803806107d283398101604081905261002f916100d4565b338061005557604051631e4fbdf760e01b81526000600482015260240160405180910390fd5b61005e81610084565b50600180546001600160a01b0319166001600160a01b0392909216919091179055610104565b600080546001600160a01b038381166001600160a01b0319831681178455604051919092169283917f8be0079c531659141344cd1fd0a4f28419497f9722a3daafe3b4186f6b6457e09190a35050565b6000602082840312156100e657600080fd5b81516001600160a01b03811681146100fd57600080fd5b9392505050565b6106bf806101136000396000f3fe6080604052600436106100595760003560e01c80636b5e97f814610065578063715018a61461007c5780638da5cb5b146100915780638e288fd1146100c7578063f2fde38b146100e7578063f3fef3a31461010757600080fd5b3661006057005b600080fd5b34801561007157600080fd5b5061007a610127565b005b34801561008857600080fd5b5061007a610346565b34801561009d57600080fd5b506000546001600160a01b03165b6040516001600160a01b03909116815260200160405180910390f35b3480156100d357600080fd5b506001546100ab906001600160a01b031681565b3480156100f357600080fd5b5061007a610102366004610589565b61035a565b34801561011357600080fd5b5061007a6101223660046105ad565b610398565b66071afd498d00004710156101835760405162461bcd60e51b815260206004820152601960248201527f496e73756666696369656e7420636f6e7472616374204554480000000000000060448201526064015b60405180910390fd5b60006101906001436105d9565b4090506000600160009054906101000a90046001600160a01b03166001600160a01b031663affed0e06040518163ffffffff1660e01b8152600401602060405180830381865afa1580156101e8573d6000803e3d6000fd5b505050506040513d601f19601f8201168201806040525081019061020c9190610600565b600154604080516020810186905260609290921b6bffffffffffffffffffffffff1916908201526054810182905290915060009060740160408051601f1981840301815291905280516020909101209050600061026a601083610619565b9050600581116103135760015460408051633ebc4ef760e11b8152905166071afd498d0000926001600160a01b031691637d789dee91849160048082019260009290919082900301818588803b1580156102c357600080fd5b505af11580156102d7573d6000803e3d6000fd5b505050505061030d6040518060400160405280601081526020016f0a6e8cac2d8d2dcce40c8c240c6c2e6d60831b81525061048f565b50610340565b6100606040518060400160405280600c81526020016b4e6f74207468652074696d6560a01b81525061048f565b50505050565b61034e6104d2565b61035860006104ff565b565b6103626104d2565b6001600160a01b03811661038c57604051631e4fbdf760e01b81526000600482015260240161017a565b610395816104ff565b50565b6103a06104d2565b804710156103f05760405162461bcd60e51b815260206004820152601d60248201527f496e73756666696369656e7420636f6e74726163742062616c616e6365000000604482015260640161017a565b6000826001600160a01b03168260405160006040518083038185875af1925050503d806000811461043d576040519150601f19603f3d011682016040523d82523d6000602084013e610442565b606091505b505090508061048a5760405162461bcd60e51b81526020600482015260146024820152732330b4b632b2103a379039b2b7321022ba3432b960611b604482015260640161017a565b505050565b610395816040516024016104a3919061063b565b60408051601f198184030181529190526020810180516001600160e01b031663104c13eb60e21b17905261054f565b6000546001600160a01b031633146103585760405163118cdaa760e01b815233600482015260240161017a565b600080546001600160a01b038381166001600160a01b0319831681178455604051919092169283917f8be0079c531659141344cd1fd0a4f28419497f9722a3daafe3b4186f6b6457e09190a35050565b6103958160006a636f6e736f6c652e6c6f679050600080835160208501845afa505050565b6001600160a01b038116811461039557600080fd5b60006020828403121561059b57600080fd5b81356105a681610574565b9392505050565b600080604083850312156105c057600080fd5b82356105cb81610574565b946020939093013593505050565b818103818111156105fa57634e487b7160e01b600052601160045260246000fd5b92915050565b60006020828403121561061257600080fd5b5051919050565b60008261063657634e487b7160e01b600052601260045260246000fd5b500690565b600060208083528351808285015260005b818110156106685785810183015185820160400152820161064c565b506000604082860101526040601f19601f830116850101925050509291505056fea26469706673582212203f7bfcc0d7f2e0a24b0a12a7eb07956935079e16d6250dea930618ab5e08179464736f6c63430008140033",
  "devdoc": {
    "errors": {
      "OwnableInvalidOwner(address)": [
        {
          "details": "The owner is not a valid owner account. (eg. `address(0)`)"
        }
      ],
      "OwnableUnauthorizedAccount(address)": [
        {
          "details": "The caller account is not authorized to perform an operation."
        }
      ]
    },
    "kind": "dev",
    "methods": {
      "owner()": {
        "details": "Returns the address of the current owner."
      },
      "renounceOwnership()": {
        "details": "Leaves the contract without owner. It will not be possible to call `onlyOwner` functions. Can only be called by the current owner. NOTE: Renouncing ownership will leave the contract without an owner, thereby disabling any functionality that is only available to the owner."
      },
      "transferOwnership(address)": {
        "details": "Transfers ownership of the contract to a new account (`newOwner`). Can only be called by the current owner."
      }
    },
    "version": 1
  },
  "userdoc": {
    "kind": "user",
    "methods": {},
    "version": 1
  },
  "storageLayout": {
    "storage": [
      {
        "astId": 8,
        "contract": "contracts/RiggedRoll.sol:RiggedRoll",
        "label": "_owner",
        "offset": 0,
        "slot": "0",
        "type": "t_address"
      },
      {
        "astId": 351,
        "contract": "contracts/RiggedRoll.sol:RiggedRoll",
        "label": "diceGame",
        "offset": 0,
        "slot": "1",
        "type": "t_contract(DiceGame)341"
      }
    ],
    "types": {
      "t_address": {
        "encoding": "inplace",
        "label": "address",
        "numberOfBytes": "20"
      },
      "t_contract(DiceGame)341": {
        "encoding": "inplace",
        "label": "contract DiceGame",
        "numberOfBytes": "20"
      }
    }
  }
}